{
  "contractName": "GearToken",
  "abi": [
    {
      "inputs": [
        {
          "internalType": "string",
          "name": "_name",
          "type": "string"
        },
        {
          "internalType": "string",
          "name": "_symbol",
          "type": "string"
        }
      ],
      "stateMutability": "nonpayable",
      "type": "constructor"
    },
    {
      "anonymous": false,
      "inputs": [
        {
          "indexed": true,
          "internalType": "address",
          "name": "owner",
          "type": "address"
        },
        {
          "indexed": true,
          "internalType": "address",
          "name": "approved",
          "type": "address"
        },
        {
          "indexed": true,
          "internalType": "uint256",
          "name": "tokenId",
          "type": "uint256"
        }
      ],
      "name": "Approval",
      "type": "event"
    },
    {
      "anonymous": false,
      "inputs": [
        {
          "indexed": true,
          "internalType": "address",
          "name": "owner",
          "type": "address"
        },
        {
          "indexed": true,
          "internalType": "address",
          "name": "operator",
          "type": "address"
        },
        {
          "indexed": false,
          "internalType": "bool",
          "name": "approved",
          "type": "bool"
        }
      ],
      "name": "ApprovalForAll",
      "type": "event"
    },
    {
      "anonymous": false,
      "inputs": [
        {
          "indexed": true,
          "internalType": "address",
          "name": "owner",
          "type": "address"
        },
        {
          "indexed": false,
          "internalType": "uint256",
          "name": "id",
          "type": "uint256"
        },
        {
          "indexed": false,
          "internalType": "uint256",
          "name": "dna",
          "type": "uint256"
        }
      ],
      "name": "NewGear",
      "type": "event"
    },
    {
      "anonymous": false,
      "inputs": [
        {
          "indexed": true,
          "internalType": "address",
          "name": "previousOwner",
          "type": "address"
        },
        {
          "indexed": true,
          "internalType": "address",
          "name": "newOwner",
          "type": "address"
        }
      ],
      "name": "OwnershipTransferred",
      "type": "event"
    },
    {
      "anonymous": false,
      "inputs": [
        {
          "indexed": true,
          "internalType": "address",
          "name": "from",
          "type": "address"
        },
        {
          "indexed": true,
          "internalType": "address",
          "name": "to",
          "type": "address"
        },
        {
          "indexed": true,
          "internalType": "uint256",
          "name": "tokenId",
          "type": "uint256"
        }
      ],
      "name": "Transfer",
      "type": "event"
    },
    {
      "inputs": [
        {
          "internalType": "address",
          "name": "to",
          "type": "address"
        },
        {
          "internalType": "uint256",
          "name": "tokenId",
          "type": "uint256"
        }
      ],
      "name": "approve",
      "outputs": [],
      "stateMutability": "nonpayable",
      "type": "function"
    },
    {
      "inputs": [
        {
          "internalType": "address",
          "name": "owner",
          "type": "address"
        }
      ],
      "name": "balanceOf",
      "outputs": [
        {
          "internalType": "uint256",
          "name": "",
          "type": "uint256"
        }
      ],
      "stateMutability": "view",
      "type": "function",
      "constant": true
    },
    {
      "inputs": [
        {
          "internalType": "uint256",
          "name": "",
          "type": "uint256"
        }
      ],
      "name": "gears",
      "outputs": [
        {
          "internalType": "string",
          "name": "name",
          "type": "string"
        },
        {
          "internalType": "uint256",
          "name": "id",
          "type": "uint256"
        },
        {
          "internalType": "uint256",
          "name": "dna",
          "type": "uint256"
        },
        {
          "internalType": "uint8",
          "name": "level",
          "type": "uint8"
        },
        {
          "internalType": "uint8",
          "name": "rarity",
          "type": "uint8"
        }
      ],
      "stateMutability": "view",
      "type": "function",
      "constant": true
    },
    {
      "inputs": [
        {
          "internalType": "uint256",
          "name": "tokenId",
          "type": "uint256"
        }
      ],
      "name": "getApproved",
      "outputs": [
        {
          "internalType": "address",
          "name": "",
          "type": "address"
        }
      ],
      "stateMutability": "view",
      "type": "function",
      "constant": true
    },
    {
      "inputs": [
        {
          "internalType": "address",
          "name": "owner",
          "type": "address"
        },
        {
          "internalType": "address",
          "name": "operator",
          "type": "address"
        }
      ],
      "name": "isApprovedForAll",
      "outputs": [
        {
          "internalType": "bool",
          "name": "",
          "type": "bool"
        }
      ],
      "stateMutability": "view",
      "type": "function",
      "constant": true
    },
    {
      "inputs": [],
      "name": "name",
      "outputs": [
        {
          "internalType": "string",
          "name": "",
          "type": "string"
        }
      ],
      "stateMutability": "view",
      "type": "function",
      "constant": true
    },
    {
      "inputs": [],
      "name": "owner",
      "outputs": [
        {
          "internalType": "address",
          "name": "",
          "type": "address"
        }
      ],
      "stateMutability": "view",
      "type": "function",
      "constant": true
    },
    {
      "inputs": [
        {
          "internalType": "uint256",
          "name": "tokenId",
          "type": "uint256"
        }
      ],
      "name": "ownerOf",
      "outputs": [
        {
          "internalType": "address",
          "name": "",
          "type": "address"
        }
      ],
      "stateMutability": "view",
      "type": "function",
      "constant": true
    },
    {
      "inputs": [],
      "name": "renounceOwnership",
      "outputs": [],
      "stateMutability": "nonpayable",
      "type": "function"
    },
    {
      "inputs": [
        {
          "internalType": "address",
          "name": "from",
          "type": "address"
        },
        {
          "internalType": "address",
          "name": "to",
          "type": "address"
        },
        {
          "internalType": "uint256",
          "name": "tokenId",
          "type": "uint256"
        }
      ],
      "name": "safeTransferFrom",
      "outputs": [],
      "stateMutability": "nonpayable",
      "type": "function"
    },
    {
      "inputs": [
        {
          "internalType": "address",
          "name": "from",
          "type": "address"
        },
        {
          "internalType": "address",
          "name": "to",
          "type": "address"
        },
        {
          "internalType": "uint256",
          "name": "tokenId",
          "type": "uint256"
        },
        {
          "internalType": "bytes",
          "name": "_data",
          "type": "bytes"
        }
      ],
      "name": "safeTransferFrom",
      "outputs": [],
      "stateMutability": "nonpayable",
      "type": "function"
    },
    {
      "inputs": [
        {
          "internalType": "address",
          "name": "operator",
          "type": "address"
        },
        {
          "internalType": "bool",
          "name": "approved",
          "type": "bool"
        }
      ],
      "name": "setApprovalForAll",
      "outputs": [],
      "stateMutability": "nonpayable",
      "type": "function"
    },
    {
      "inputs": [
        {
          "internalType": "bytes4",
          "name": "interfaceId",
          "type": "bytes4"
        }
      ],
      "name": "supportsInterface",
      "outputs": [
        {
          "internalType": "bool",
          "name": "",
          "type": "bool"
        }
      ],
      "stateMutability": "view",
      "type": "function",
      "constant": true
    },
    {
      "inputs": [],
      "name": "symbol",
      "outputs": [
        {
          "internalType": "string",
          "name": "",
          "type": "string"
        }
      ],
      "stateMutability": "view",
      "type": "function",
      "constant": true
    },
    {
      "inputs": [
        {
          "internalType": "uint256",
          "name": "tokenId",
          "type": "uint256"
        }
      ],
      "name": "tokenURI",
      "outputs": [
        {
          "internalType": "string",
          "name": "",
          "type": "string"
        }
      ],
      "stateMutability": "view",
      "type": "function",
      "constant": true
    },
    {
      "inputs": [
        {
          "internalType": "address",
          "name": "from",
          "type": "address"
        },
        {
          "internalType": "address",
          "name": "to",
          "type": "address"
        },
        {
          "internalType": "uint256",
          "name": "tokenId",
          "type": "uint256"
        }
      ],
      "name": "transferFrom",
      "outputs": [],
      "stateMutability": "nonpayable",
      "type": "function"
    },
    {
      "inputs": [
        {
          "internalType": "address",
          "name": "newOwner",
          "type": "address"
        }
      ],
      "name": "transferOwnership",
      "outputs": [],
      "stateMutability": "nonpayable",
      "type": "function"
    },
    {
      "inputs": [
        {
          "internalType": "uint256",
          "name": "_fee",
          "type": "uint256"
        }
      ],
      "name": "updateFee",
      "outputs": [],
      "stateMutability": "nonpayable",
      "type": "function"
    },
    {
      "inputs": [],
      "name": "withdraw",
      "outputs": [],
      "stateMutability": "payable",
      "type": "function",
      "payable": true
    },
    {
      "inputs": [
        {
          "internalType": "string",
          "name": "_name",
          "type": "string"
        }
      ],
      "name": "createRandomGear",
      "outputs": [],
      "stateMutability": "payable",
      "type": "function",
      "payable": true
    },
    {
      "inputs": [],
      "name": "getGears",
      "outputs": [
        {
          "components": [
            {
              "internalType": "string",
              "name": "name",
              "type": "string"
            },
            {
              "internalType": "uint256",
              "name": "id",
              "type": "uint256"
            },
            {
              "internalType": "uint256",
              "name": "dna",
              "type": "uint256"
            },
            {
              "internalType": "uint8",
              "name": "level",
              "type": "uint8"
            },
            {
              "internalType": "uint8",
              "name": "rarity",
              "type": "uint8"
            }
          ],
          "internalType": "struct GearToken.Gear[]",
          "name": "",
          "type": "tuple[]"
        }
      ],
      "stateMutability": "view",
      "type": "function",
      "constant": true
    },
    {
      "inputs": [
        {
          "internalType": "address",
          "name": "_owner",
          "type": "address"
        }
      ],
      "name": "getOwnerGears",
      "outputs": [
        {
          "components": [
            {
              "internalType": "string",
              "name": "name",
              "type": "string"
            },
            {
              "internalType": "uint256",
              "name": "id",
              "type": "uint256"
            },
            {
              "internalType": "uint256",
              "name": "dna",
              "type": "uint256"
            },
            {
              "internalType": "uint8",
              "name": "level",
              "type": "uint8"
            },
            {
              "internalType": "uint8",
              "name": "rarity",
              "type": "uint8"
            }
          ],
          "internalType": "struct GearToken.Gear[]",
          "name": "",
          "type": "tuple[]"
        }
      ],
      "stateMutability": "view",
      "type": "function",
      "constant": true
    }
  ],
  "bytecode": "0x6080604052670de0b6b3a76400006008553480156200001d57600080fd5b5060405162003e6b38038062003e6b833981810160405281019062000043919062000291565b818181600090805190602001906200005d9291906200016f565b508060019080519060200190620000769291906200016f565b505050620000996200008d620000a160201b60201c565b620000a960201b60201c565b505062000474565b600033905090565b6000600660009054906101000a900473ffffffffffffffffffffffffffffffffffffffff16905081600660006101000a81548173ffffffffffffffffffffffffffffffffffffffff021916908373ffffffffffffffffffffffffffffffffffffffff1602179055508173ffffffffffffffffffffffffffffffffffffffff168173ffffffffffffffffffffffffffffffffffffffff167f8be0079c531659141344cd1fd0a4f28419497f9722a3daafe3b4186f6b6457e060405160405180910390a35050565b8280546200017d9062000399565b90600052602060002090601f016020900481019282620001a15760008555620001ed565b82601f10620001bc57805160ff1916838001178555620001ed565b82800160010185558215620001ed579182015b82811115620001ec578251825591602001919060010190620001cf565b5b509050620001fc919062000200565b5090565b5b808211156200021b57600081600090555060010162000201565b5090565b60006200023662000230846200032d565b62000304565b9050828152602081018484840111156200024f57600080fd5b6200025c84828562000363565b509392505050565b600082601f8301126200027657600080fd5b8151620002888482602086016200021f565b91505092915050565b60008060408385031215620002a557600080fd5b600083015167ffffffffffffffff811115620002c057600080fd5b620002ce8582860162000264565b925050602083015167ffffffffffffffff811115620002ec57600080fd5b620002fa8582860162000264565b9150509250929050565b60006200031062000323565b90506200031e8282620003cf565b919050565b6000604051905090565b600067ffffffffffffffff8211156200034b576200034a62000434565b5b620003568262000463565b9050602081019050919050565b60005b838110156200038357808201518184015260208101905062000366565b8381111562000393576000848401525b50505050565b60006002820490506001821680620003b257607f821691505b60208210811415620003c957620003c862000405565b5b50919050565b620003da8262000463565b810181811067ffffffffffffffff82111715620003fc57620003fb62000434565b5b80604052505050565b7f4e487b7100000000000000000000000000000000000000000000000000000000600052602260045260246000fd5b7f4e487b7100000000000000000000000000000000000000000000000000000000600052604160045260246000fd5b6000601f19601f8301169050919050565b6139e780620004846000396000f3fe6080604052600436106101355760003560e01c8063715018a6116100ab578063a22cb4651161006f578063a22cb465146103fc578063b88d4fde14610425578063c87b56dd1461044e578063c8cc9a4e1461048b578063e985e9c5146104c8578063f2fde38b1461050557610135565b8063715018a6146103255780638da5cb5b1461033c5780638e482274146103675780639012c4a8146103a857806395d89b41146103d157610135565b806323b872dd116100fd57806323b872dd146102245780633cbbea581461024d5780633ccfd60b1461027857806342842e0e146102825780636352211e146102ab57806370a08231146102e857610135565b806301ffc9a71461013a57806302afd76a1461017757806306fdde0314610193578063081812fc146101be578063095ea7b3146101fb575b600080fd5b34801561014657600080fd5b50610161600480360381019061015c9190612717565b61052e565b60405161016e9190612d62565b60405180910390f35b610191600480360381019061018c9190612769565b610610565b005b34801561019f57600080fd5b506101a8610661565b6040516101b59190612d7d565b60405180910390f35b3480156101ca57600080fd5b506101e560048036038101906101e091906127aa565b6106f3565b6040516101f29190612cd9565b60405180910390f35b34801561020757600080fd5b50610222600480360381019061021d91906126db565b610778565b005b34801561023057600080fd5b5061024b600480360381019061024691906125d5565b610890565b005b34801561025957600080fd5b506102626108f0565b60405161026f9190612d40565b60405180910390f35b610280610a2f565b005b34801561028e57600080fd5b506102a960048036038101906102a491906125d5565b610b01565b005b3480156102b757600080fd5b506102d260048036038101906102cd91906127aa565b610b21565b6040516102df9190612cd9565b60405180910390f35b3480156102f457600080fd5b5061030f600480360381019061030a9190612570565b610bd3565b60405161031c9190613019565b60405180910390f35b34801561033157600080fd5b5061033a610c8b565b005b34801561034857600080fd5b50610351610d13565b60405161035e9190612cd9565b60405180910390f35b34801561037357600080fd5b5061038e600480360381019061038991906127aa565b610d3d565b60405161039f959493929190612d9f565b60405180910390f35b3480156103b457600080fd5b506103cf60048036038101906103ca91906127aa565b610e25565b005b3480156103dd57600080fd5b506103e6610eab565b6040516103f39190612d7d565b60405180910390f35b34801561040857600080fd5b50610423600480360381019061041e919061269f565b610f3d565b005b34801561043157600080fd5b5061044c60048036038101906104479190612624565b610f53565b005b34801561045a57600080fd5b50610475600480360381019061047091906127aa565b610fb5565b6040516104829190612d7d565b60405180910390f35b34801561049757600080fd5b506104b260048036038101906104ad9190612570565b61105c565b6040516104bf9190612d40565b60405180910390f35b3480156104d457600080fd5b506104ef60048036038101906104ea9190612599565b6112d5565b6040516104fc9190612d62565b60405180910390f35b34801561051157600080fd5b5061052c60048036038101906105279190612570565b611369565b005b60007f80ac58cd000000000000000000000000000000000000000000000000000000007bffffffffffffffffffffffffffffffffffffffffffffffffffffffff1916827bffffffffffffffffffffffffffffffffffffffffffffffffffffffff191614806105f957507f5b5e139f000000000000000000000000000000000000000000000000000000007bffffffffffffffffffffffffffffffffffffffffffffffffffffffff1916827bffffffffffffffffffffffffffffffffffffffffffffffffffffffff1916145b80610609575061060882611461565b5b9050919050565b600854341015610655576040517f08c379a000000000000000000000000000000000000000000000000000000000815260040161064c90612eb9565b60405180910390fd5b61065e816114cb565b50565b606060008054610670906132ef565b80601f016020809104026020016040519081016040528092919081815260200182805461069c906132ef565b80156106e95780601f106106be576101008083540402835291602001916106e9565b820191906000526020600020905b8154815290600101906020018083116106cc57829003601f168201915b5050505050905090565b60006106fe8261163e565b61073d576040517f08c379a000000000000000000000000000000000000000000000000000000000815260040161073490612f79565b60405180910390fd5b6004600083815260200190815260200160002060009054906101000a900473ffffffffffffffffffffffffffffffffffffffff169050919050565b600061078382610b21565b90508073ffffffffffffffffffffffffffffffffffffffff168373ffffffffffffffffffffffffffffffffffffffff1614156107f4576040517f08c379a00000000000000000000000000000000000000000000000000000000081526004016107eb90612fd9565b60405180910390fd5b8073ffffffffffffffffffffffffffffffffffffffff166108136116aa565b73ffffffffffffffffffffffffffffffffffffffff16148061084257506108418161083c6116aa565b6112d5565b5b610881576040517f08c379a000000000000000000000000000000000000000000000000000000000815260040161087890612ef9565b60405180910390fd5b61088b83836116b2565b505050565b6108a161089b6116aa565b8261176b565b6108e0576040517f08c379a00000000000000000000000000000000000000000000000000000000081526004016108d790612ff9565b60405180910390fd5b6108eb838383611849565b505050565b60606009805480602002602001604051908101604052809291908181526020016000905b82821015610a2657838290600052602060002090600402016040518060a0016040529081600082018054610947906132ef565b80601f0160208091040260200160405190810160405280929190818152602001828054610973906132ef565b80156109c05780601f10610995576101008083540402835291602001916109c0565b820191906000526020600020905b8154815290600101906020018083116109a357829003601f168201915b5050505050815260200160018201548152602001600282015481526020016003820160009054906101000a900460ff1660ff1660ff1681526020016003820160019054906101000a900460ff1660ff1660ff168152505081526020019060010190610914565b50505050905090565b610a376116aa565b73ffffffffffffffffffffffffffffffffffffffff16610a55610d13565b73ffffffffffffffffffffffffffffffffffffffff1614610aab576040517f08c379a0000000000000000000000000000000000000000000000000000000008152600401610aa290612f99565b60405180910390fd5b6000610ab5610d13565b90508073ffffffffffffffffffffffffffffffffffffffff166108fc479081150290604051600060405180830381858888f19350505050158015610afd573d6000803e3d6000fd5b5050565b610b1c83838360405180602001604052806000815250610f53565b505050565b6000806002600084815260200190815260200160002060009054906101000a900473ffffffffffffffffffffffffffffffffffffffff169050600073ffffffffffffffffffffffffffffffffffffffff168173ffffffffffffffffffffffffffffffffffffffff161415610bca576040517f08c379a0000000000000000000000000000000000000000000000000000000008152600401610bc190612f39565b60405180910390fd5b80915050919050565b60008073ffffffffffffffffffffffffffffffffffffffff168273ffffffffffffffffffffffffffffffffffffffff161415610c44576040517f08c379a0000000000000000000000000000000000000000000000000000000008152600401610c3b90612f19565b60405180910390fd5b600360008373ffffffffffffffffffffffffffffffffffffffff1673ffffffffffffffffffffffffffffffffffffffff168152602001908152602001600020549050919050565b610c936116aa565b73ffffffffffffffffffffffffffffffffffffffff16610cb1610d13565b73ffffffffffffffffffffffffffffffffffffffff1614610d07576040517f08c379a0000000000000000000000000000000000000000000000000000000008152600401610cfe90612f99565b60405180910390fd5b610d116000611ab0565b565b6000600660009054906101000a900473ffffffffffffffffffffffffffffffffffffffff16905090565b60098181548110610d4d57600080fd5b9060005260206000209060040201600091509050806000018054610d70906132ef565b80601f0160208091040260200160405190810160405280929190818152602001828054610d9c906132ef565b8015610de95780601f10610dbe57610100808354040283529160200191610de9565b820191906000526020600020905b815481529060010190602001808311610dcc57829003601f168201915b5050505050908060010154908060020154908060030160009054906101000a900460ff16908060030160019054906101000a900460ff16905085565b610e2d6116aa565b73ffffffffffffffffffffffffffffffffffffffff16610e4b610d13565b73ffffffffffffffffffffffffffffffffffffffff1614610ea1576040517f08c379a0000000000000000000000000000000000000000000000000000000008152600401610e9890612f99565b60405180910390fd5b8060088190555050565b606060018054610eba906132ef565b80601f0160208091040260200160405190810160405280929190818152602001828054610ee6906132ef565b8015610f335780601f10610f0857610100808354040283529160200191610f33565b820191906000526020600020905b815481529060010190602001808311610f1657829003601f168201915b5050505050905090565b610f4f610f486116aa565b8383611b76565b5050565b610f64610f5e6116aa565b8361176b565b610fa3576040517f08c379a0000000000000000000000000000000000000000000000000000000008152600401610f9a90612ff9565b60405180910390fd5b610faf84848484611ce3565b50505050565b6060610fc08261163e565b610fff576040517f08c379a0000000000000000000000000000000000000000000000000000000008152600401610ff690612fb9565b60405180910390fd5b6000611009611d3f565b905060008151116110295760405180602001604052806000815250611054565b8061103384611d56565b604051602001611044929190612c89565b6040516020818303038152906040525b915050919050565b6060600061106983610bd3565b67ffffffffffffffff8111156110a8577f4e487b7100000000000000000000000000000000000000000000000000000000600052604160045260246000fd5b6040519080825280602002602001820160405280156110e157816020015b6110ce61235f565b8152602001906001900390816110c65790505b5090506000805b6009805490508110156112ca578473ffffffffffffffffffffffffffffffffffffffff1661111582610b21565b73ffffffffffffffffffffffffffffffffffffffff1614156112b7576009818154811061116b577f4e487b7100000000000000000000000000000000000000000000000000000000600052603260045260246000fd5b90600052602060002090600402016040518060a0016040529081600082018054611194906132ef565b80601f01602080910402602001604051908101604052809291908181526020018280546111c0906132ef565b801561120d5780601f106111e25761010080835404028352916020019161120d565b820191906000526020600020905b8154815290600101906020018083116111f057829003601f168201915b5050505050815260200160018201548152602001600282015481526020016003820160009054906101000a900460ff1660ff1660ff1681526020016003820160019054906101000a900460ff1660ff1660ff168152505083838151811061129d577f4e487b7100000000000000000000000000000000000000000000000000000000600052603260045260246000fd5b602002602001018190525081806112b390613352565b9250505b80806112c290613352565b9150506110e8565b508192505050919050565b6000600560008473ffffffffffffffffffffffffffffffffffffffff1673ffffffffffffffffffffffffffffffffffffffff16815260200190815260200160002060008373ffffffffffffffffffffffffffffffffffffffff1673ffffffffffffffffffffffffffffffffffffffff16815260200190815260200160002060009054906101000a900460ff16905092915050565b6113716116aa565b73ffffffffffffffffffffffffffffffffffffffff1661138f610d13565b73ffffffffffffffffffffffffffffffffffffffff16146113e5576040517f08c379a00000000000000000000000000000000000000000000000000000000081526004016113dc90612f99565b60405180910390fd5b600073ffffffffffffffffffffffffffffffffffffffff168173ffffffffffffffffffffffffffffffffffffffff161415611455576040517f08c379a000000000000000000000000000000000000000000000000000000000815260040161144c90612e19565b60405180910390fd5b61145e81611ab0565b50565b60007f01ffc9a7000000000000000000000000000000000000000000000000000000007bffffffffffffffffffffffffffffffffffffffffffffffffffffffff1916827bffffffffffffffffffffffffffffffffffffffffffffffffffffffff1916149050919050565b60006114d76064611f03565b905060006114eb662386f26fc10000611f03565b905060006040518060a001604052808581526020016007548152602001838152602001600160ff1681526020018460ff16815250905060098190806001815401808255809150506001900390600052602060002090600402016000909190919091506000820151816000019080519060200190611569929190612394565b50602082015181600101556040820151816002015560608201518160030160006101000a81548160ff021916908360ff16021790555060808201518160030160016101000a81548160ff021916908360ff16021790555050506115ce33600754611f48565b3373ffffffffffffffffffffffffffffffffffffffff167fdbd611fc16fb866380aafecc133ed6d6d5810ba0f0322a58c551a64b8ea91dc760075484604051611618929190613034565b60405180910390a26007600081548092919061163390613352565b919050555050505050565b60008073ffffffffffffffffffffffffffffffffffffffff166002600084815260200190815260200160002060009054906101000a900473ffffffffffffffffffffffffffffffffffffffff1673ffffffffffffffffffffffffffffffffffffffff1614159050919050565b600033905090565b816004600083815260200190815260200160002060006101000a81548173ffffffffffffffffffffffffffffffffffffffff021916908373ffffffffffffffffffffffffffffffffffffffff160217905550808273ffffffffffffffffffffffffffffffffffffffff1661172583610b21565b73ffffffffffffffffffffffffffffffffffffffff167f8c5be1e5ebec7d5bd14f71427d1e84f3dd0314c0f7b2291e5b200ac8c7c3b92560405160405180910390a45050565b60006117768261163e565b6117b5576040517f08c379a00000000000000000000000000000000000000000000000000000000081526004016117ac90612ed9565b60405180910390fd5b60006117c083610b21565b90508073ffffffffffffffffffffffffffffffffffffffff168473ffffffffffffffffffffffffffffffffffffffff16148061182f57508373ffffffffffffffffffffffffffffffffffffffff16611817846106f3565b73ffffffffffffffffffffffffffffffffffffffff16145b80611840575061183f81856112d5565b5b91505092915050565b8273ffffffffffffffffffffffffffffffffffffffff1661186982610b21565b73ffffffffffffffffffffffffffffffffffffffff16146118bf576040517f08c379a00000000000000000000000000000000000000000000000000000000081526004016118b690612e39565b60405180910390fd5b600073ffffffffffffffffffffffffffffffffffffffff168273ffffffffffffffffffffffffffffffffffffffff16141561192f576040517f08c379a000000000000000000000000000000000000000000000000000000000815260040161192690612e79565b60405180910390fd5b61193a838383611f66565b6119456000826116b2565b6001600360008573ffffffffffffffffffffffffffffffffffffffff1673ffffffffffffffffffffffffffffffffffffffff168152602001908152602001600020600082825461199591906131f8565b925050819055506001600360008473ffffffffffffffffffffffffffffffffffffffff1673ffffffffffffffffffffffffffffffffffffffff16815260200190815260200160002060008282546119ec9190613171565b92505081905550816002600083815260200190815260200160002060006101000a81548173ffffffffffffffffffffffffffffffffffffffff021916908373ffffffffffffffffffffffffffffffffffffffff160217905550808273ffffffffffffffffffffffffffffffffffffffff168473ffffffffffffffffffffffffffffffffffffffff167fddf252ad1be2c89b69c2b068fc378daa952ba7f163c4a11628f55a4df523b3ef60405160405180910390a4611aab838383611f6b565b505050565b6000600660009054906101000a900473ffffffffffffffffffffffffffffffffffffffff16905081600660006101000a81548173ffffffffffffffffffffffffffffffffffffffff021916908373ffffffffffffffffffffffffffffffffffffffff1602179055508173ffffffffffffffffffffffffffffffffffffffff168173ffffffffffffffffffffffffffffffffffffffff167f8be0079c531659141344cd1fd0a4f28419497f9722a3daafe3b4186f6b6457e060405160405180910390a35050565b8173ffffffffffffffffffffffffffffffffffffffff168373ffffffffffffffffffffffffffffffffffffffff161415611be5576040517f08c379a0000000000000000000000000000000000000000000000000000000008152600401611bdc90612e99565b60405180910390fd5b80600560008573ffffffffffffffffffffffffffffffffffffffff1673ffffffffffffffffffffffffffffffffffffffff16815260200190815260200160002060008473ffffffffffffffffffffffffffffffffffffffff1673ffffffffffffffffffffffffffffffffffffffff16815260200190815260200160002060006101000a81548160ff0219169083151502179055508173ffffffffffffffffffffffffffffffffffffffff168373ffffffffffffffffffffffffffffffffffffffff167f17307eab39ab6107e8899845ad3d59bd9653f200f220920489ca2b5937696c3183604051611cd69190612d62565b60405180910390a3505050565b611cee848484611849565b611cfa84848484611f70565b611d39576040517f08c379a0000000000000000000000000000000000000000000000000000000008152600401611d3090612df9565b60405180910390fd5b50505050565b606060405180602001604052806000815250905090565b60606000821415611d9e576040518060400160405280600181526020017f30000000000000000000000000000000000000000000000000000000000000008152509050611efe565b600082905060005b60008214611dd0578080611db990613352565b915050600a82611dc991906131c7565b9150611da6565b60008167ffffffffffffffff811115611e12577f4e487b7100000000000000000000000000000000000000000000000000000000600052604160045260246000fd5b6040519080825280601f01601f191660200182016040528015611e445781602001600182028036833780820191505090505b5090505b60008514611ef757600182611e5d91906131f8565b9150600a85611e6c91906133c9565b6030611e789190613171565b60f81b818381518110611eb4577f4e487b7100000000000000000000000000000000000000000000000000000000600052603260045260246000fd5b60200101907effffffffffffffffffffffffffffffffffffffffffffffffffffffffffffff1916908160001a905350600a85611ef091906131c7565b9450611e48565b8093505050505b919050565b6000804233604051602001611f19929190612cad565b6040516020818303038152906040528051906020012060001c90508281611f4091906133c9565b915050919050565b611f62828260405180602001604052806000815250612107565b5050565b505050565b505050565b6000611f918473ffffffffffffffffffffffffffffffffffffffff16612162565b156120fa578373ffffffffffffffffffffffffffffffffffffffff1663150b7a02611fba6116aa565b8786866040518563ffffffff1660e01b8152600401611fdc9493929190612cf4565b602060405180830381600087803b158015611ff657600080fd5b505af192505050801561202757506040513d601f19601f820116820180604052508101906120249190612740565b60015b6120aa573d8060008114612057576040519150601f19603f3d011682016040523d82523d6000602084013e61205c565b606091505b506000815114156120a2576040517f08c379a000000000000000000000000000000000000000000000000000000000815260040161209990612df9565b60405180910390fd5b805181602001fd5b63150b7a0260e01b7bffffffffffffffffffffffffffffffffffffffffffffffffffffffff1916817bffffffffffffffffffffffffffffffffffffffffffffffffffffffff1916149150506120ff565b600190505b949350505050565b6121118383612185565b61211e6000848484611f70565b61215d576040517f08c379a000000000000000000000000000000000000000000000000000000000815260040161215490612df9565b60405180910390fd5b505050565b6000808273ffffffffffffffffffffffffffffffffffffffff163b119050919050565b600073ffffffffffffffffffffffffffffffffffffffff168273ffffffffffffffffffffffffffffffffffffffff1614156121f5576040517f08c379a00000000000000000000000000000000000000000000000000000000081526004016121ec90612f59565b60405180910390fd5b6121fe8161163e565b1561223e576040517f08c379a000000000000000000000000000000000000000000000000000000000815260040161223590612e59565b60405180910390fd5b61224a60008383611f66565b6001600360008473ffffffffffffffffffffffffffffffffffffffff1673ffffffffffffffffffffffffffffffffffffffff168152602001908152602001600020600082825461229a9190613171565b92505081905550816002600083815260200190815260200160002060006101000a81548173ffffffffffffffffffffffffffffffffffffffff021916908373ffffffffffffffffffffffffffffffffffffffff160217905550808273ffffffffffffffffffffffffffffffffffffffff16600073ffffffffffffffffffffffffffffffffffffffff167fddf252ad1be2c89b69c2b068fc378daa952ba7f163c4a11628f55a4df523b3ef60405160405180910390a461235b60008383611f6b565b5050565b6040518060a00160405280606081526020016000815260200160008152602001600060ff168152602001600060ff1681525090565b8280546123a0906132ef565b90600052602060002090601f0160209004810192826123c25760008555612409565b82601f106123db57805160ff1916838001178555612409565b82800160010185558215612409579182015b828111156124085782518255916020019190600101906123ed565b5b509050612416919061241a565b5090565b5b8082111561243357600081600090555060010161241b565b5090565b600061244a61244584613082565b61305d565b90508281526020810184848401111561246257600080fd5b61246d8482856132ad565b509392505050565b6000612488612483846130b3565b61305d565b9050828152602081018484840111156124a057600080fd5b6124ab8482856132ad565b509392505050565b6000813590506124c281613955565b92915050565b6000813590506124d78161396c565b92915050565b6000813590506124ec81613983565b92915050565b60008151905061250181613983565b92915050565b600082601f83011261251857600080fd5b8135612528848260208601612437565b91505092915050565b600082601f83011261254257600080fd5b8135612552848260208601612475565b91505092915050565b60008135905061256a8161399a565b92915050565b60006020828403121561258257600080fd5b6000612590848285016124b3565b91505092915050565b600080604083850312156125ac57600080fd5b60006125ba858286016124b3565b92505060206125cb858286016124b3565b9150509250929050565b6000806000606084860312156125ea57600080fd5b60006125f8868287016124b3565b9350506020612609868287016124b3565b925050604061261a8682870161255b565b9150509250925092565b6000806000806080858703121561263a57600080fd5b6000612648878288016124b3565b9450506020612659878288016124b3565b935050604061266a8782880161255b565b925050606085013567ffffffffffffffff81111561268757600080fd5b61269387828801612507565b91505092959194509250565b600080604083850312156126b257600080fd5b60006126c0858286016124b3565b92505060206126d1858286016124c8565b9150509250929050565b600080604083850312156126ee57600080fd5b60006126fc858286016124b3565b925050602061270d8582860161255b565b9150509250929050565b60006020828403121561272957600080fd5b6000612737848285016124dd565b91505092915050565b60006020828403121561275257600080fd5b6000612760848285016124f2565b91505092915050565b60006020828403121561277b57600080fd5b600082013567ffffffffffffffff81111561279557600080fd5b6127a184828501612531565b91505092915050565b6000602082840312156127bc57600080fd5b60006127ca8482850161255b565b91505092915050565b60006127df8383612bc0565b905092915050565b6127f08161322c565b82525050565b6128076128028261322c565b61339b565b82525050565b6000612818826130f4565b6128228185613122565b935083602082028501612834856130e4565b8060005b85811015612870578484038952815161285185826127d3565b945061285c83613115565b925060208a01995050600181019050612838565b50829750879550505050505092915050565b61288b8161323e565b82525050565b600061289c826130ff565b6128a68185613133565b93506128b68185602086016132bc565b6128bf816134b6565b840191505092915050565b60006128d58261310a565b6128df8185613144565b93506128ef8185602086016132bc565b6128f8816134b6565b840191505092915050565b600061290e8261310a565b6129188185613155565b93506129288185602086016132bc565b612931816134b6565b840191505092915050565b60006129478261310a565b6129518185613166565b93506129618185602086016132bc565b80840191505092915050565b600061297a603283613155565b9150612985826134d4565b604082019050919050565b600061299d602683613155565b91506129a882613523565b604082019050919050565b60006129c0602583613155565b91506129cb82613572565b604082019050919050565b60006129e3601c83613155565b91506129ee826135c1565b602082019050919050565b6000612a06602483613155565b9150612a11826135ea565b604082019050919050565b6000612a29601983613155565b9150612a3482613639565b602082019050919050565b6000612a4c601683613155565b9150612a5782613662565b602082019050919050565b6000612a6f602c83613155565b9150612a7a8261368b565b604082019050919050565b6000612a92603883613155565b9150612a9d826136da565b604082019050919050565b6000612ab5602a83613155565b9150612ac082613729565b604082019050919050565b6000612ad8602983613155565b9150612ae382613778565b604082019050919050565b6000612afb602083613155565b9150612b06826137c7565b602082019050919050565b6000612b1e602c83613155565b9150612b29826137f0565b604082019050919050565b6000612b41602083613155565b9150612b4c8261383f565b602082019050919050565b6000612b64602f83613155565b9150612b6f82613868565b604082019050919050565b6000612b87602183613155565b9150612b92826138b7565b604082019050919050565b6000612baa603183613155565b9150612bb582613906565b604082019050919050565b600060a0830160008301518482036000860152612bdd82826128ca565b9150506020830151612bf26020860182612c36565b506040830151612c056040860182612c36565b506060830151612c186060860182612c6b565b506080830151612c2b6080860182612c6b565b508091505092915050565b612c3f81613296565b82525050565b612c4e81613296565b82525050565b612c65612c6082613296565b6133bf565b82525050565b612c74816132a0565b82525050565b612c83816132a0565b82525050565b6000612c95828561293c565b9150612ca1828461293c565b91508190509392505050565b6000612cb98285612c54565b602082019150612cc982846127f6565b6014820191508190509392505050565b6000602082019050612cee60008301846127e7565b92915050565b6000608082019050612d0960008301876127e7565b612d1660208301866127e7565b612d236040830185612c45565b8181036060830152612d358184612891565b905095945050505050565b60006020820190508181036000830152612d5a818461280d565b905092915050565b6000602082019050612d776000830184612882565b92915050565b60006020820190508181036000830152612d978184612903565b905092915050565b600060a0820190508181036000830152612db98188612903565b9050612dc86020830187612c45565b612dd56040830186612c45565b612de26060830185612c7a565b612def6080830184612c7a565b9695505050505050565b60006020820190508181036000830152612e128161296d565b9050919050565b60006020820190508181036000830152612e3281612990565b9050919050565b60006020820190508181036000830152612e52816129b3565b9050919050565b60006020820190508181036000830152612e72816129d6565b9050919050565b60006020820190508181036000830152612e92816129f9565b9050919050565b60006020820190508181036000830152612eb281612a1c565b9050919050565b60006020820190508181036000830152612ed281612a3f565b9050919050565b60006020820190508181036000830152612ef281612a62565b9050919050565b60006020820190508181036000830152612f1281612a85565b9050919050565b60006020820190508181036000830152612f3281612aa8565b9050919050565b60006020820190508181036000830152612f5281612acb565b9050919050565b60006020820190508181036000830152612f7281612aee565b9050919050565b60006020820190508181036000830152612f9281612b11565b9050919050565b60006020820190508181036000830152612fb281612b34565b9050919050565b60006020820190508181036000830152612fd281612b57565b9050919050565b60006020820190508181036000830152612ff281612b7a565b9050919050565b6000602082019050818103600083015261301281612b9d565b9050919050565b600060208201905061302e6000830184612c45565b92915050565b60006040820190506130496000830185612c45565b6130566020830184612c45565b9392505050565b6000613067613078565b90506130738282613321565b919050565b6000604051905090565b600067ffffffffffffffff82111561309d5761309c613487565b5b6130a6826134b6565b9050602081019050919050565b600067ffffffffffffffff8211156130ce576130cd613487565b5b6130d7826134b6565b9050602081019050919050565b6000819050602082019050919050565b600081519050919050565b600081519050919050565b600081519050919050565b6000602082019050919050565b600082825260208201905092915050565b600082825260208201905092915050565b600082825260208201905092915050565b600082825260208201905092915050565b600081905092915050565b600061317c82613296565b915061318783613296565b9250827fffffffffffffffffffffffffffffffffffffffffffffffffffffffffffffffff038211156131bc576131bb6133fa565b5b828201905092915050565b60006131d282613296565b91506131dd83613296565b9250826131ed576131ec613429565b5b828204905092915050565b600061320382613296565b915061320e83613296565b925082821015613221576132206133fa565b5b828203905092915050565b600061323782613276565b9050919050565b60008115159050919050565b60007fffffffff0000000000000000000000000000000000000000000000000000000082169050919050565b600073ffffffffffffffffffffffffffffffffffffffff82169050919050565b6000819050919050565b600060ff82169050919050565b82818337600083830152505050565b60005b838110156132da5780820151818401526020810190506132bf565b838111156132e9576000848401525b50505050565b6000600282049050600182168061330757607f821691505b6020821081141561331b5761331a613458565b5b50919050565b61332a826134b6565b810181811067ffffffffffffffff8211171561334957613348613487565b5b80604052505050565b600061335d82613296565b91507fffffffffffffffffffffffffffffffffffffffffffffffffffffffffffffffff8214156133905761338f6133fa565b5b600182019050919050565b60006133a6826133ad565b9050919050565b60006133b8826134c7565b9050919050565b6000819050919050565b60006133d482613296565b91506133df83613296565b9250826133ef576133ee613429565b5b828206905092915050565b7f4e487b7100000000000000000000000000000000000000000000000000000000600052601160045260246000fd5b7f4e487b7100000000000000000000000000000000000000000000000000000000600052601260045260246000fd5b7f4e487b7100000000000000000000000000000000000000000000000000000000600052602260045260246000fd5b7f4e487b7100000000000000000000000000000000000000000000000000000000600052604160045260246000fd5b6000601f19601f8301169050919050565b60008160601b9050919050565b7f4552433732313a207472616e7366657220746f206e6f6e20455243373231526560008201527f63656976657220696d706c656d656e7465720000000000000000000000000000602082015250565b7f4f776e61626c653a206e6577206f776e657220697320746865207a65726f206160008201527f6464726573730000000000000000000000000000000000000000000000000000602082015250565b7f4552433732313a207472616e736665722066726f6d20696e636f72726563742060008201527f6f776e6572000000000000000000000000000000000000000000000000000000602082015250565b7f4552433732313a20746f6b656e20616c7265616479206d696e74656400000000600082015250565b7f4552433732313a207472616e7366657220746f20746865207a65726f2061646460008201527f7265737300000000000000000000000000000000000000000000000000000000602082015250565b7f4552433732313a20617070726f766520746f2063616c6c657200000000000000600082015250565b7f54686520666565206973206e6f7420636f727265637400000000000000000000600082015250565b7f4552433732313a206f70657261746f7220717565727920666f72206e6f6e657860008201527f697374656e7420746f6b656e0000000000000000000000000000000000000000602082015250565b7f4552433732313a20617070726f76652063616c6c6572206973206e6f74206f7760008201527f6e6572206e6f7220617070726f76656420666f7220616c6c0000000000000000602082015250565b7f4552433732313a2062616c616e636520717565727920666f7220746865207a6560008201527f726f206164647265737300000000000000000000000000000000000000000000602082015250565b7f4552433732313a206f776e657220717565727920666f72206e6f6e657869737460008201527f656e7420746f6b656e0000000000000000000000000000000000000000000000602082015250565b7f4552433732313a206d696e7420746f20746865207a65726f2061646472657373600082015250565b7f4552433732313a20617070726f76656420717565727920666f72206e6f6e657860008201527f697374656e7420746f6b656e0000000000000000000000000000000000000000602082015250565b7f4f776e61626c653a2063616c6c6572206973206e6f7420746865206f776e6572600082015250565b7f4552433732314d657461646174613a2055524920717565727920666f72206e6f60008201527f6e6578697374656e7420746f6b656e0000000000000000000000000000000000602082015250565b7f4552433732313a20617070726f76616c20746f2063757272656e74206f776e6560008201527f7200000000000000000000000000000000000000000000000000000000000000602082015250565b7f4552433732313a207472616e736665722063616c6c6572206973206e6f74206f60008201527f776e6572206e6f7220617070726f766564000000000000000000000000000000602082015250565b61395e8161322c565b811461396957600080fd5b50565b6139758161323e565b811461398057600080fd5b50565b61398c8161324a565b811461399757600080fd5b50565b6139a381613296565b81146139ae57600080fd5b5056fea2646970667358221220ab6af98786f34624790994cf07a6a9ed85b977875a6cbb595ff16d2b17d5c0ed64736f6c63430008010033",
  "immutableReferences": {},
  "source": "// SPDX-License-Identifier: MIT\n\npragma solidity ^0.8.0;\n\nimport \"@openzeppelin/contracts/token/ERC721/ERC721.sol\";\nimport \"@openzeppelin/contracts/access/Ownable.sol\";\n\ncontract GearToken is ERC721, Ownable {\n    constructor(string memory _name, string memory _symbol)\n        ERC721(_name, _symbol)\n    {}\n\n    uint256 COUNTER; // Incremental function for indexing of NFTs\n\n    // Gas fee function\n    uint256 fee = 1 ether;\n\n    struct Gear {\n        string name;\n        uint256 id;\n        uint256 dna;\n        uint8 level;\n        uint8 rarity;\n    }\n\n    Gear[] public gears;\n\n    event NewGear(address indexed owner, uint256 id, uint256 dna);\n\n    // Helpers\n    function _createRandomNum(uint256 _mod) internal view returns (uint256) {\n        // generate DNA\n        uint256 randomNum = uint256(\n            keccak256(abi.encodePacked(block.timestamp, msg.sender))\n        ); // Takes the string input into function _genRandomDna and hashes it into a random number (keccak256)\n        return randomNum % _mod;\n    }\n\n    function updateFee(uint256 _fee) external onlyOwner {\n        fee = _fee;\n    }\n\n    function withdraw() external payable onlyOwner {\n        // Withdraw the (holding) gas fee that was paid, only users who have created NFTs can withdraw the gas they've put in\n        address payable _owner = payable(owner());\n        _owner.transfer(address(this).balance);\n    }\n\n    // Minting/creation stage of the token\n    function _createGear(string memory _name) internal {\n        uint8 randRarity = uint8(_createRandomNum(100)); // Modulus of 100 -> Random number from 1-100; converting/casting from uint256 to uint8\n        uint256 randDna = _createRandomNum(10**16);\n        Gear memory newGear = Gear(_name, COUNTER, randDna, 1, randRarity);\n        gears.push(newGear); // Adds the new gear onto the array\n        _safeMint(msg.sender, COUNTER); // Send the token to the account that initialised the transaction?, what is the identifier of the NFT that's being minted?\n        emit NewGear(msg.sender, COUNTER, randDna);\n        COUNTER++;\n    }\n\n    function createRandomGear(string memory _name) public payable {\n        require(msg.value >= fee, \"The fee is not correct\"); // msg.value => how much the address input and sent to the contract\n        _createGear(_name);\n    }\n\n    // Getter functions\n    function getGears() public view returns (Gear[] memory) {\n        return gears;\n    }\n\n    function getOwnerGears(address _owner) public view returns (Gear[] memory) {\n        // Get all of the owner's Gears\n        // Filter & loop through all gears, retrieve only the owner's gears (getter)\n        Gear[] memory result = new Gear[](balanceOf(_owner)); // balanceOf(_owner) => how many NFTs the owner has (from ERC721 smartcontract script from openzeppelin)\n        uint256 counter = 0;\n        for (uint256 i = 0; i < gears.length; i++) {\n            if (ownerOf(i) == _owner) {\n                // If the owner of the NFT is the same as the address that's calling the function\n                result[counter] = gears[i];\n                counter++;\n            }\n        }\n        return result;\n    }\n}\n",
  "sourcePath": "/Users/larbuckle/Documents/Star Sailors/polygon/kinetikakoin-frontend/contracts/GearToken.sol",
  "compiler": {
    "name": "solc",
    "version": "0.8.1+commit.df193b15.Emscripten.clang"
  },
  "schemaVersion": "3.4.5",
  "updatedAt": "2022-02-25T07:20:03.137Z",
  "networkType": "ethereum",
  "devdoc": {
    "kind": "dev",
    "methods": {
      "approve(address,uint256)": {
        "details": "See {IERC721-approve}."
      },
      "balanceOf(address)": {
        "details": "See {IERC721-balanceOf}."
      },
      "getApproved(uint256)": {
        "details": "See {IERC721-getApproved}."
      },
      "isApprovedForAll(address,address)": {
        "details": "See {IERC721-isApprovedForAll}."
      },
      "name()": {
        "details": "See {IERC721Metadata-name}."
      },
      "owner()": {
        "details": "Returns the address of the current owner."
      },
      "ownerOf(uint256)": {
        "details": "See {IERC721-ownerOf}."
      },
      "renounceOwnership()": {
        "details": "Leaves the contract without owner. It will not be possible to call `onlyOwner` functions anymore. Can only be called by the current owner. NOTE: Renouncing ownership will leave the contract without an owner, thereby removing any functionality that is only available to the owner."
      },
      "safeTransferFrom(address,address,uint256)": {
        "details": "See {IERC721-safeTransferFrom}."
      },
      "safeTransferFrom(address,address,uint256,bytes)": {
        "details": "See {IERC721-safeTransferFrom}."
      },
      "setApprovalForAll(address,bool)": {
        "details": "See {IERC721-setApprovalForAll}."
      },
      "supportsInterface(bytes4)": {
        "details": "See {IERC165-supportsInterface}."
      },
      "symbol()": {
        "details": "See {IERC721Metadata-symbol}."
      },
      "tokenURI(uint256)": {
        "details": "See {IERC721Metadata-tokenURI}."
      },
      "transferFrom(address,address,uint256)": {
        "details": "See {IERC721-transferFrom}."
      },
      "transferOwnership(address)": {
        "details": "Transfers ownership of the contract to a new account (`newOwner`). Can only be called by the current owner."
      }
    },
    "version": 1
  },
  "userdoc": {
    "kind": "user",
    "methods": {},
    "version": 1
  }
}