{
  "contractName": "GearToken",
  "abi": [
    {
      "inputs": [
        {
          "internalType": "string",
          "name": "_name",
          "type": "string"
        },
        {
          "internalType": "string",
          "name": "_symbol",
          "type": "string"
        }
      ],
      "stateMutability": "nonpayable",
      "type": "constructor"
    },
    {
      "anonymous": false,
      "inputs": [
        {
          "indexed": true,
          "internalType": "address",
          "name": "owner",
          "type": "address"
        },
        {
          "indexed": true,
          "internalType": "address",
          "name": "approved",
          "type": "address"
        },
        {
          "indexed": true,
          "internalType": "uint256",
          "name": "tokenId",
          "type": "uint256"
        }
      ],
      "name": "Approval",
      "type": "event"
    },
    {
      "anonymous": false,
      "inputs": [
        {
          "indexed": true,
          "internalType": "address",
          "name": "owner",
          "type": "address"
        },
        {
          "indexed": true,
          "internalType": "address",
          "name": "operator",
          "type": "address"
        },
        {
          "indexed": false,
          "internalType": "bool",
          "name": "approved",
          "type": "bool"
        }
      ],
      "name": "ApprovalForAll",
      "type": "event"
    },
    {
      "anonymous": false,
      "inputs": [
        {
          "indexed": true,
          "internalType": "address",
          "name": "owner",
          "type": "address"
        },
        {
          "indexed": false,
          "internalType": "uint256",
          "name": "id",
          "type": "uint256"
        },
        {
          "indexed": false,
          "internalType": "uint256",
          "name": "dna",
          "type": "uint256"
        }
      ],
      "name": "NewGear",
      "type": "event"
    },
    {
      "anonymous": false,
      "inputs": [
        {
          "indexed": true,
          "internalType": "address",
          "name": "previousOwner",
          "type": "address"
        },
        {
          "indexed": true,
          "internalType": "address",
          "name": "newOwner",
          "type": "address"
        }
      ],
      "name": "OwnershipTransferred",
      "type": "event"
    },
    {
      "anonymous": false,
      "inputs": [
        {
          "indexed": true,
          "internalType": "address",
          "name": "from",
          "type": "address"
        },
        {
          "indexed": true,
          "internalType": "address",
          "name": "to",
          "type": "address"
        },
        {
          "indexed": true,
          "internalType": "uint256",
          "name": "tokenId",
          "type": "uint256"
        }
      ],
      "name": "Transfer",
      "type": "event"
    },
    {
      "inputs": [
        {
          "internalType": "address",
          "name": "to",
          "type": "address"
        },
        {
          "internalType": "uint256",
          "name": "tokenId",
          "type": "uint256"
        }
      ],
      "name": "approve",
      "outputs": [],
      "stateMutability": "nonpayable",
      "type": "function"
    },
    {
      "inputs": [
        {
          "internalType": "address",
          "name": "owner",
          "type": "address"
        }
      ],
      "name": "balanceOf",
      "outputs": [
        {
          "internalType": "uint256",
          "name": "",
          "type": "uint256"
        }
      ],
      "stateMutability": "view",
      "type": "function",
      "constant": true
    },
    {
      "inputs": [
        {
          "internalType": "uint256",
          "name": "",
          "type": "uint256"
        }
      ],
      "name": "gears",
      "outputs": [
        {
          "internalType": "string",
          "name": "name",
          "type": "string"
        },
        {
          "internalType": "uint256",
          "name": "id",
          "type": "uint256"
        },
        {
          "internalType": "uint256",
          "name": "dna",
          "type": "uint256"
        },
        {
          "internalType": "uint8",
          "name": "level",
          "type": "uint8"
        },
        {
          "internalType": "uint8",
          "name": "rarity",
          "type": "uint8"
        }
      ],
      "stateMutability": "view",
      "type": "function",
      "constant": true
    },
    {
      "inputs": [
        {
          "internalType": "uint256",
          "name": "tokenId",
          "type": "uint256"
        }
      ],
      "name": "getApproved",
      "outputs": [
        {
          "internalType": "address",
          "name": "",
          "type": "address"
        }
      ],
      "stateMutability": "view",
      "type": "function",
      "constant": true
    },
    {
      "inputs": [
        {
          "internalType": "address",
          "name": "owner",
          "type": "address"
        },
        {
          "internalType": "address",
          "name": "operator",
          "type": "address"
        }
      ],
      "name": "isApprovedForAll",
      "outputs": [
        {
          "internalType": "bool",
          "name": "",
          "type": "bool"
        }
      ],
      "stateMutability": "view",
      "type": "function",
      "constant": true
    },
    {
      "inputs": [],
      "name": "name",
      "outputs": [
        {
          "internalType": "string",
          "name": "",
          "type": "string"
        }
      ],
      "stateMutability": "view",
      "type": "function",
      "constant": true
    },
    {
      "inputs": [],
      "name": "owner",
      "outputs": [
        {
          "internalType": "address",
          "name": "",
          "type": "address"
        }
      ],
      "stateMutability": "view",
      "type": "function",
      "constant": true
    },
    {
      "inputs": [
        {
          "internalType": "uint256",
          "name": "tokenId",
          "type": "uint256"
        }
      ],
      "name": "ownerOf",
      "outputs": [
        {
          "internalType": "address",
          "name": "",
          "type": "address"
        }
      ],
      "stateMutability": "view",
      "type": "function",
      "constant": true
    },
    {
      "inputs": [],
      "name": "renounceOwnership",
      "outputs": [],
      "stateMutability": "nonpayable",
      "type": "function"
    },
    {
      "inputs": [
        {
          "internalType": "address",
          "name": "from",
          "type": "address"
        },
        {
          "internalType": "address",
          "name": "to",
          "type": "address"
        },
        {
          "internalType": "uint256",
          "name": "tokenId",
          "type": "uint256"
        }
      ],
      "name": "safeTransferFrom",
      "outputs": [],
      "stateMutability": "nonpayable",
      "type": "function"
    },
    {
      "inputs": [
        {
          "internalType": "address",
          "name": "from",
          "type": "address"
        },
        {
          "internalType": "address",
          "name": "to",
          "type": "address"
        },
        {
          "internalType": "uint256",
          "name": "tokenId",
          "type": "uint256"
        },
        {
          "internalType": "bytes",
          "name": "_data",
          "type": "bytes"
        }
      ],
      "name": "safeTransferFrom",
      "outputs": [],
      "stateMutability": "nonpayable",
      "type": "function"
    },
    {
      "inputs": [
        {
          "internalType": "address",
          "name": "operator",
          "type": "address"
        },
        {
          "internalType": "bool",
          "name": "approved",
          "type": "bool"
        }
      ],
      "name": "setApprovalForAll",
      "outputs": [],
      "stateMutability": "nonpayable",
      "type": "function"
    },
    {
      "inputs": [
        {
          "internalType": "bytes4",
          "name": "interfaceId",
          "type": "bytes4"
        }
      ],
      "name": "supportsInterface",
      "outputs": [
        {
          "internalType": "bool",
          "name": "",
          "type": "bool"
        }
      ],
      "stateMutability": "view",
      "type": "function",
      "constant": true
    },
    {
      "inputs": [],
      "name": "symbol",
      "outputs": [
        {
          "internalType": "string",
          "name": "",
          "type": "string"
        }
      ],
      "stateMutability": "view",
      "type": "function",
      "constant": true
    },
    {
      "inputs": [
        {
          "internalType": "uint256",
          "name": "tokenId",
          "type": "uint256"
        }
      ],
      "name": "tokenURI",
      "outputs": [
        {
          "internalType": "string",
          "name": "",
          "type": "string"
        }
      ],
      "stateMutability": "view",
      "type": "function",
      "constant": true
    },
    {
      "inputs": [
        {
          "internalType": "address",
          "name": "from",
          "type": "address"
        },
        {
          "internalType": "address",
          "name": "to",
          "type": "address"
        },
        {
          "internalType": "uint256",
          "name": "tokenId",
          "type": "uint256"
        }
      ],
      "name": "transferFrom",
      "outputs": [],
      "stateMutability": "nonpayable",
      "type": "function"
    },
    {
      "inputs": [
        {
          "internalType": "address",
          "name": "newOwner",
          "type": "address"
        }
      ],
      "name": "transferOwnership",
      "outputs": [],
      "stateMutability": "nonpayable",
      "type": "function"
    },
    {
      "inputs": [
        {
          "internalType": "uint256",
          "name": "_fee",
          "type": "uint256"
        }
      ],
      "name": "updateFee",
      "outputs": [],
      "stateMutability": "nonpayable",
      "type": "function"
    },
    {
      "inputs": [],
      "name": "withdraw",
      "outputs": [],
      "stateMutability": "payable",
      "type": "function",
      "payable": true
    },
    {
      "inputs": [
        {
          "internalType": "string",
          "name": "_name",
          "type": "string"
        }
      ],
      "name": "createRandomGear",
      "outputs": [],
      "stateMutability": "payable",
      "type": "function",
      "payable": true
    },
    {
      "inputs": [],
      "name": "getGears",
      "outputs": [
        {
          "components": [
            {
              "internalType": "string",
              "name": "name",
              "type": "string"
            },
            {
              "internalType": "uint256",
              "name": "id",
              "type": "uint256"
            },
            {
              "internalType": "uint256",
              "name": "dna",
              "type": "uint256"
            },
            {
              "internalType": "uint8",
              "name": "level",
              "type": "uint8"
            },
            {
              "internalType": "uint8",
              "name": "rarity",
              "type": "uint8"
            }
          ],
          "internalType": "struct GearToken.Gear[]",
          "name": "",
          "type": "tuple[]"
        }
      ],
      "stateMutability": "view",
      "type": "function",
      "constant": true
    }
  ],
  "bytecode": "0x6080604052670de0b6b3a76400006008553480156200001d57600080fd5b5060405162003a1738038062003a17833981810160405281019062000043919062000291565b818181600090805190602001906200005d9291906200016f565b508060019080519060200190620000769291906200016f565b505050620000996200008d620000a160201b60201c565b620000a960201b60201c565b505062000435565b600033905090565b6000600660009054906101000a900473ffffffffffffffffffffffffffffffffffffffff16905081600660006101000a81548173ffffffffffffffffffffffffffffffffffffffff021916908373ffffffffffffffffffffffffffffffffffffffff1602179055508173ffffffffffffffffffffffffffffffffffffffff168173ffffffffffffffffffffffffffffffffffffffff167f8be0079c531659141344cd1fd0a4f28419497f9722a3daafe3b4186f6b6457e060405160405180910390a35050565b8280546200017d90620003a1565b90600052602060002090601f016020900481019282620001a15760008555620001ed565b82601f10620001bc57805160ff1916838001178555620001ed565b82800160010185558215620001ed579182015b82811115620001ec578251825591602001919060010190620001cf565b5b509050620001fc919062000200565b5090565b5b808211156200021b57600081600090555060010162000201565b5090565b600062000236620002308462000338565b62000304565b9050828152602081018484840111156200024f57600080fd5b6200025c8482856200036b565b509392505050565b600082601f8301126200027657600080fd5b8151620002888482602086016200021f565b91505092915050565b60008060408385031215620002a557600080fd5b600083015167ffffffffffffffff811115620002c057600080fd5b620002ce8582860162000264565b925050602083015167ffffffffffffffff811115620002ec57600080fd5b620002fa8582860162000264565b9150509250929050565b6000604051905081810181811067ffffffffffffffff821117156200032e576200032d62000406565b5b8060405250919050565b600067ffffffffffffffff82111562000356576200035562000406565b5b601f19601f8301169050602081019050919050565b60005b838110156200038b5780820151818401526020810190506200036e565b838111156200039b576000848401525b50505050565b60006002820490506001821680620003ba57607f821691505b60208210811415620003d157620003d0620003d7565b5b50919050565b7f4e487b7100000000000000000000000000000000000000000000000000000000600052602260045260246000fd5b7f4e487b7100000000000000000000000000000000000000000000000000000000600052604160045260246000fd5b6135d280620004456000396000f3fe60806040526004361061012a5760003560e01c806370a08231116100ab57806395d89b411161006f57806395d89b41146103c6578063a22cb465146103f1578063b88d4fde1461041a578063c87b56dd14610443578063e985e9c514610480578063f2fde38b146104bd5761012a565b806370a08231146102dd578063715018a61461031a5780638da5cb5b146103315780638e4822741461035c5780639012c4a81461039d5761012a565b806323b872dd116100f257806323b872dd146102195780633cbbea58146102425780633ccfd60b1461026d57806342842e0e146102775780636352211e146102a05761012a565b806301ffc9a71461012f57806302afd76a1461016c57806306fdde0314610188578063081812fc146101b3578063095ea7b3146101f0575b600080fd5b34801561013b57600080fd5b50610156600480360381019061015191906123f5565b6104e6565b6040516101639190612df5565b60405180910390f35b61018660048036038101906101819190612447565b6105c8565b005b34801561019457600080fd5b5061019d610619565b6040516101aa9190612e10565b60405180910390f35b3480156101bf57600080fd5b506101da60048036038101906101d59190612488565b6106ab565b6040516101e79190612d6c565b60405180910390f35b3480156101fc57600080fd5b50610217600480360381019061021291906123b9565b610730565b005b34801561022557600080fd5b50610240600480360381019061023b91906122b3565b610848565b005b34801561024e57600080fd5b506102576108a8565b6040516102649190612dd3565b60405180910390f35b6102756109e7565b005b34801561028357600080fd5b5061029e600480360381019061029991906122b3565b610ab9565b005b3480156102ac57600080fd5b506102c760048036038101906102c29190612488565b610ad9565b6040516102d49190612d6c565b60405180910390f35b3480156102e957600080fd5b5061030460048036038101906102ff919061224e565b610b8b565b60405161031191906130ac565b60405180910390f35b34801561032657600080fd5b5061032f610c43565b005b34801561033d57600080fd5b50610346610ccb565b6040516103539190612d6c565b60405180910390f35b34801561036857600080fd5b50610383600480360381019061037e9190612488565b610cf5565b604051610394959493929190612e32565b60405180910390f35b3480156103a957600080fd5b506103c460048036038101906103bf9190612488565b610ddd565b005b3480156103d257600080fd5b506103db610e63565b6040516103e89190612e10565b60405180910390f35b3480156103fd57600080fd5b506104186004803603810190610413919061237d565b610ef5565b005b34801561042657600080fd5b50610441600480360381019061043c9190612302565b610f0b565b005b34801561044f57600080fd5b5061046a60048036038101906104659190612488565b610f6d565b6040516104779190612e10565b60405180910390f35b34801561048c57600080fd5b506104a760048036038101906104a29190612277565b611014565b6040516104b49190612df5565b60405180910390f35b3480156104c957600080fd5b506104e460048036038101906104df919061224e565b6110a8565b005b60007f80ac58cd000000000000000000000000000000000000000000000000000000007bffffffffffffffffffffffffffffffffffffffffffffffffffffffff1916827bffffffffffffffffffffffffffffffffffffffffffffffffffffffff191614806105b157507f5b5e139f000000000000000000000000000000000000000000000000000000007bffffffffffffffffffffffffffffffffffffffffffffffffffffffff1916827bffffffffffffffffffffffffffffffffffffffffffffffffffffffff1916145b806105c157506105c0826111a0565b5b9050919050565b60085434101561060d576040517f08c379a000000000000000000000000000000000000000000000000000000000815260040161060490612f2c565b60405180910390fd5b6106168161120a565b50565b6060600080546106289061338c565b80601f01602080910402602001604051908101604052809291908181526020018280546106549061338c565b80156106a15780601f10610676576101008083540402835291602001916106a1565b820191906000526020600020905b81548152906001019060200180831161068457829003601f168201915b5050505050905090565b60006106b68261137d565b6106f5576040517f08c379a00000000000000000000000000000000000000000000000000000000081526004016106ec90612fec565b60405180910390fd5b6004600083815260200190815260200160002060009054906101000a900473ffffffffffffffffffffffffffffffffffffffff169050919050565b600061073b82610ad9565b90508073ffffffffffffffffffffffffffffffffffffffff168373ffffffffffffffffffffffffffffffffffffffff1614156107ac576040517f08c379a00000000000000000000000000000000000000000000000000000000081526004016107a39061306c565b60405180910390fd5b8073ffffffffffffffffffffffffffffffffffffffff166107cb6113e9565b73ffffffffffffffffffffffffffffffffffffffff1614806107fa57506107f9816107f46113e9565b611014565b5b610839576040517f08c379a000000000000000000000000000000000000000000000000000000000815260040161083090612f6c565b60405180910390fd5b61084383836113f1565b505050565b6108596108536113e9565b826114aa565b610898576040517f08c379a000000000000000000000000000000000000000000000000000000000815260040161088f9061308c565b60405180910390fd5b6108a3838383611588565b505050565b60606009805480602002602001604051908101604052809291908181526020016000905b828210156109de57838290600052602060002090600402016040518060a00160405290816000820180546108ff9061338c565b80601f016020809104026020016040519081016040528092919081815260200182805461092b9061338c565b80156109785780601f1061094d57610100808354040283529160200191610978565b820191906000526020600020905b81548152906001019060200180831161095b57829003601f168201915b5050505050815260200160018201548152602001600282015481526020016003820160009054906101000a900460ff1660ff1660ff1681526020016003820160019054906101000a900460ff1660ff1660ff1681525050815260200190600101906108cc565b50505050905090565b6109ef6113e9565b73ffffffffffffffffffffffffffffffffffffffff16610a0d610ccb565b73ffffffffffffffffffffffffffffffffffffffff1614610a63576040517f08c379a0000000000000000000000000000000000000000000000000000000008152600401610a5a9061300c565b60405180910390fd5b6000610a6d610ccb565b90508073ffffffffffffffffffffffffffffffffffffffff166108fc479081150290604051600060405180830381858888f19350505050158015610ab5573d6000803e3d6000fd5b5050565b610ad483838360405180602001604052806000815250610f0b565b505050565b6000806002600084815260200190815260200160002060009054906101000a900473ffffffffffffffffffffffffffffffffffffffff169050600073ffffffffffffffffffffffffffffffffffffffff168173ffffffffffffffffffffffffffffffffffffffff161415610b82576040517f08c379a0000000000000000000000000000000000000000000000000000000008152600401610b7990612fac565b60405180910390fd5b80915050919050565b60008073ffffffffffffffffffffffffffffffffffffffff168273ffffffffffffffffffffffffffffffffffffffff161415610bfc576040517f08c379a0000000000000000000000000000000000000000000000000000000008152600401610bf390612f8c565b60405180910390fd5b600360008373ffffffffffffffffffffffffffffffffffffffff1673ffffffffffffffffffffffffffffffffffffffff168152602001908152602001600020549050919050565b610c4b6113e9565b73ffffffffffffffffffffffffffffffffffffffff16610c69610ccb565b73ffffffffffffffffffffffffffffffffffffffff1614610cbf576040517f08c379a0000000000000000000000000000000000000000000000000000000008152600401610cb69061300c565b60405180910390fd5b610cc960006117e4565b565b6000600660009054906101000a900473ffffffffffffffffffffffffffffffffffffffff16905090565b60098181548110610d0557600080fd5b9060005260206000209060040201600091509050806000018054610d289061338c565b80601f0160208091040260200160405190810160405280929190818152602001828054610d549061338c565b8015610da15780601f10610d7657610100808354040283529160200191610da1565b820191906000526020600020905b815481529060010190602001808311610d8457829003601f168201915b5050505050908060010154908060020154908060030160009054906101000a900460ff16908060030160019054906101000a900460ff16905085565b610de56113e9565b73ffffffffffffffffffffffffffffffffffffffff16610e03610ccb565b73ffffffffffffffffffffffffffffffffffffffff1614610e59576040517f08c379a0000000000000000000000000000000000000000000000000000000008152600401610e509061300c565b60405180910390fd5b8060088190555050565b606060018054610e729061338c565b80601f0160208091040260200160405190810160405280929190818152602001828054610e9e9061338c565b8015610eeb5780601f10610ec057610100808354040283529160200191610eeb565b820191906000526020600020905b815481529060010190602001808311610ece57829003601f168201915b5050505050905090565b610f07610f006113e9565b83836118aa565b5050565b610f1c610f166113e9565b836114aa565b610f5b576040517f08c379a0000000000000000000000000000000000000000000000000000000008152600401610f529061308c565b60405180910390fd5b610f6784848484611a17565b50505050565b6060610f788261137d565b610fb7576040517f08c379a0000000000000000000000000000000000000000000000000000000008152600401610fae9061304c565b60405180910390fd5b6000610fc1611a73565b90506000815111610fe1576040518060200160405280600081525061100c565b80610feb84611a8a565b604051602001610ffc929190612d1c565b6040516020818303038152906040525b915050919050565b6000600560008473ffffffffffffffffffffffffffffffffffffffff1673ffffffffffffffffffffffffffffffffffffffff16815260200190815260200160002060008373ffffffffffffffffffffffffffffffffffffffff1673ffffffffffffffffffffffffffffffffffffffff16815260200190815260200160002060009054906101000a900460ff16905092915050565b6110b06113e9565b73ffffffffffffffffffffffffffffffffffffffff166110ce610ccb565b73ffffffffffffffffffffffffffffffffffffffff1614611124576040517f08c379a000000000000000000000000000000000000000000000000000000000815260040161111b9061300c565b60405180910390fd5b600073ffffffffffffffffffffffffffffffffffffffff168173ffffffffffffffffffffffffffffffffffffffff161415611194576040517f08c379a000000000000000000000000000000000000000000000000000000000815260040161118b90612eac565b60405180910390fd5b61119d816117e4565b50565b60007f01ffc9a7000000000000000000000000000000000000000000000000000000007bffffffffffffffffffffffffffffffffffffffffffffffffffffffff1916827bffffffffffffffffffffffffffffffffffffffffffffffffffffffff1916149050919050565b60006112166064611c37565b9050600061122a662386f26fc10000611c37565b905060006040518060a001604052808581526020016007548152602001838152602001600160ff1681526020018460ff168152509050600981908060018154018082558091505060019003906000526020600020906004020160009091909190915060008201518160000190805190602001906112a8929190612072565b50602082015181600101556040820151816002015560608201518160030160006101000a81548160ff021916908360ff16021790555060808201518160030160016101000a81548160ff021916908360ff160217905550505061130d33600754611c7c565b3373ffffffffffffffffffffffffffffffffffffffff167fdbd611fc16fb866380aafecc133ed6d6d5810ba0f0322a58c551a64b8ea91dc7600754846040516113579291906130c7565b60405180910390a260076000815480929190611372906133be565b919050555050505050565b60008073ffffffffffffffffffffffffffffffffffffffff166002600084815260200190815260200160002060009054906101000a900473ffffffffffffffffffffffffffffffffffffffff1673ffffffffffffffffffffffffffffffffffffffff1614159050919050565b600033905090565b816004600083815260200190815260200160002060006101000a81548173ffffffffffffffffffffffffffffffffffffffff021916908373ffffffffffffffffffffffffffffffffffffffff160217905550808273ffffffffffffffffffffffffffffffffffffffff1661146483610ad9565b73ffffffffffffffffffffffffffffffffffffffff167f8c5be1e5ebec7d5bd14f71427d1e84f3dd0314c0f7b2291e5b200ac8c7c3b92560405160405180910390a45050565b60006114b58261137d565b6114f4576040517f08c379a00000000000000000000000000000000000000000000000000000000081526004016114eb90612f4c565b60405180910390fd5b60006114ff83610ad9565b90508073ffffffffffffffffffffffffffffffffffffffff168473ffffffffffffffffffffffffffffffffffffffff16148061156e57508373ffffffffffffffffffffffffffffffffffffffff16611556846106ab565b73ffffffffffffffffffffffffffffffffffffffff16145b8061157f575061157e8185611014565b5b91505092915050565b8273ffffffffffffffffffffffffffffffffffffffff166115a882610ad9565b73ffffffffffffffffffffffffffffffffffffffff16146115fe576040517f08c379a00000000000000000000000000000000000000000000000000000000081526004016115f59061302c565b60405180910390fd5b600073ffffffffffffffffffffffffffffffffffffffff168273ffffffffffffffffffffffffffffffffffffffff16141561166e576040517f08c379a000000000000000000000000000000000000000000000000000000000815260040161166590612eec565b60405180910390fd5b611679838383611c9a565b6116846000826113f1565b6001600360008573ffffffffffffffffffffffffffffffffffffffff1673ffffffffffffffffffffffffffffffffffffffff16815260200190815260200160002060008282546116d49190613295565b925050819055506001600360008473ffffffffffffffffffffffffffffffffffffffff1673ffffffffffffffffffffffffffffffffffffffff168152602001908152602001600020600082825461172b919061320e565b92505081905550816002600083815260200190815260200160002060006101000a81548173ffffffffffffffffffffffffffffffffffffffff021916908373ffffffffffffffffffffffffffffffffffffffff160217905550808273ffffffffffffffffffffffffffffffffffffffff168473ffffffffffffffffffffffffffffffffffffffff167fddf252ad1be2c89b69c2b068fc378daa952ba7f163c4a11628f55a4df523b3ef60405160405180910390a4505050565b6000600660009054906101000a900473ffffffffffffffffffffffffffffffffffffffff16905081600660006101000a81548173ffffffffffffffffffffffffffffffffffffffff021916908373ffffffffffffffffffffffffffffffffffffffff1602179055508173ffffffffffffffffffffffffffffffffffffffff168173ffffffffffffffffffffffffffffffffffffffff167f8be0079c531659141344cd1fd0a4f28419497f9722a3daafe3b4186f6b6457e060405160405180910390a35050565b8173ffffffffffffffffffffffffffffffffffffffff168373ffffffffffffffffffffffffffffffffffffffff161415611919576040517f08c379a000000000000000000000000000000000000000000000000000000000815260040161191090612f0c565b60405180910390fd5b80600560008573ffffffffffffffffffffffffffffffffffffffff1673ffffffffffffffffffffffffffffffffffffffff16815260200190815260200160002060008473ffffffffffffffffffffffffffffffffffffffff1673ffffffffffffffffffffffffffffffffffffffff16815260200190815260200160002060006101000a81548160ff0219169083151502179055508173ffffffffffffffffffffffffffffffffffffffff168373ffffffffffffffffffffffffffffffffffffffff167f17307eab39ab6107e8899845ad3d59bd9653f200f220920489ca2b5937696c3183604051611a0a9190612df5565b60405180910390a3505050565b611a22848484611588565b611a2e84848484611c9f565b611a6d576040517f08c379a0000000000000000000000000000000000000000000000000000000008152600401611a6490612e8c565b60405180910390fd5b50505050565b606060405180602001604052806000815250905090565b60606000821415611ad2576040518060400160405280600181526020017f30000000000000000000000000000000000000000000000000000000000000008152509050611c32565b600082905060005b60008214611b04578080611aed906133be565b915050600a82611afd9190613264565b9150611ada565b60008167ffffffffffffffff811115611b46577f4e487b7100000000000000000000000000000000000000000000000000000000600052604160045260246000fd5b6040519080825280601f01601f191660200182016040528015611b785781602001600182028036833780820191505090505b5090505b60008514611c2b57600182611b919190613295565b9150600a85611ba09190613435565b6030611bac919061320e565b60f81b818381518110611be8577f4e487b7100000000000000000000000000000000000000000000000000000000600052603260045260246000fd5b60200101907effffffffffffffffffffffffffffffffffffffffffffffffffffffffffffff1916908160001a905350600a85611c249190613264565b9450611b7c565b8093505050505b919050565b6000804233604051602001611c4d929190612d40565b6040516020818303038152906040528051906020012060001c90508281611c749190613435565b915050919050565b611c96828260405180602001604052806000815250611e36565b5050565b505050565b6000611cc08473ffffffffffffffffffffffffffffffffffffffff16611e91565b15611e29578373ffffffffffffffffffffffffffffffffffffffff1663150b7a02611ce96113e9565b8786866040518563ffffffff1660e01b8152600401611d0b9493929190612d87565b602060405180830381600087803b158015611d2557600080fd5b505af1925050508015611d5657506040513d601f19601f82011682018060405250810190611d53919061241e565b60015b611dd9573d8060008114611d86576040519150601f19603f3d011682016040523d82523d6000602084013e611d8b565b606091505b50600081511415611dd1576040517f08c379a0000000000000000000000000000000000000000000000000000000008152600401611dc890612e8c565b60405180910390fd5b805181602001fd5b63150b7a0260e01b7bffffffffffffffffffffffffffffffffffffffffffffffffffffffff1916817bffffffffffffffffffffffffffffffffffffffffffffffffffffffff191614915050611e2e565b600190505b949350505050565b611e408383611ea4565b611e4d6000848484611c9f565b611e8c576040517f08c379a0000000000000000000000000000000000000000000000000000000008152600401611e8390612e8c565b60405180910390fd5b505050565b600080823b905060008111915050919050565b600073ffffffffffffffffffffffffffffffffffffffff168273ffffffffffffffffffffffffffffffffffffffff161415611f14576040517f08c379a0000000000000000000000000000000000000000000000000000000008152600401611f0b90612fcc565b60405180910390fd5b611f1d8161137d565b15611f5d576040517f08c379a0000000000000000000000000000000000000000000000000000000008152600401611f5490612ecc565b60405180910390fd5b611f6960008383611c9a565b6001600360008473ffffffffffffffffffffffffffffffffffffffff1673ffffffffffffffffffffffffffffffffffffffff1681526020019081526020016000206000828254611fb9919061320e565b92505081905550816002600083815260200190815260200160002060006101000a81548173ffffffffffffffffffffffffffffffffffffffff021916908373ffffffffffffffffffffffffffffffffffffffff160217905550808273ffffffffffffffffffffffffffffffffffffffff16600073ffffffffffffffffffffffffffffffffffffffff167fddf252ad1be2c89b69c2b068fc378daa952ba7f163c4a11628f55a4df523b3ef60405160405180910390a45050565b82805461207e9061338c565b90600052602060002090601f0160209004810192826120a057600085556120e7565b82601f106120b957805160ff19168380011785556120e7565b828001600101855582156120e7579182015b828111156120e65782518255916020019190600101906120cb565b5b5090506120f491906120f8565b5090565b5b808211156121115760008160009055506001016120f9565b5090565b600061212861212384613121565b6130f0565b90508281526020810184848401111561214057600080fd5b61214b84828561334a565b509392505050565b600061216661216184613151565b6130f0565b90508281526020810184848401111561217e57600080fd5b61218984828561334a565b509392505050565b6000813590506121a081613540565b92915050565b6000813590506121b581613557565b92915050565b6000813590506121ca8161356e565b92915050565b6000815190506121df8161356e565b92915050565b600082601f8301126121f657600080fd5b8135612206848260208601612115565b91505092915050565b600082601f83011261222057600080fd5b8135612230848260208601612153565b91505092915050565b60008135905061224881613585565b92915050565b60006020828403121561226057600080fd5b600061226e84828501612191565b91505092915050565b6000806040838503121561228a57600080fd5b600061229885828601612191565b92505060206122a985828601612191565b9150509250929050565b6000806000606084860312156122c857600080fd5b60006122d686828701612191565b93505060206122e786828701612191565b92505060406122f886828701612239565b9150509250925092565b6000806000806080858703121561231857600080fd5b600061232687828801612191565b945050602061233787828801612191565b935050604061234887828801612239565b925050606085013567ffffffffffffffff81111561236557600080fd5b612371878288016121e5565b91505092959194509250565b6000806040838503121561239057600080fd5b600061239e85828601612191565b92505060206123af858286016121a6565b9150509250929050565b600080604083850312156123cc57600080fd5b60006123da85828601612191565b92505060206123eb85828601612239565b9150509250929050565b60006020828403121561240757600080fd5b6000612415848285016121bb565b91505092915050565b60006020828403121561243057600080fd5b600061243e848285016121d0565b91505092915050565b60006020828403121561245957600080fd5b600082013567ffffffffffffffff81111561247357600080fd5b61247f8482850161220f565b91505092915050565b60006020828403121561249a57600080fd5b60006124a884828501612239565b91505092915050565b60006124bd8383612c53565b905092915050565b6124ce816132c9565b82525050565b6124e56124e0826132c9565b613407565b82525050565b60006124f682613191565b61250081856131bf565b93508360208202850161251285613181565b8060005b8581101561254e578484038952815161252f85826124b1565b945061253a836131b2565b925060208a01995050600181019050612516565b50829750879550505050505092915050565b612569816132db565b82525050565b600061257a8261319c565b61258481856131d0565b9350612594818560208601613359565b61259d81613522565b840191505092915050565b60006125b3826131a7565b6125bd81856131e1565b93506125cd818560208601613359565b6125d681613522565b840191505092915050565b60006125ec826131a7565b6125f681856131f2565b9350612606818560208601613359565b61260f81613522565b840191505092915050565b6000612625826131a7565b61262f8185613203565b935061263f818560208601613359565b80840191505092915050565b60006126586032836131f2565b91507f4552433732313a207472616e7366657220746f206e6f6e20455243373231526560008301527f63656976657220696d706c656d656e74657200000000000000000000000000006020830152604082019050919050565b60006126be6026836131f2565b91507f4f776e61626c653a206e6577206f776e657220697320746865207a65726f206160008301527f64647265737300000000000000000000000000000000000000000000000000006020830152604082019050919050565b6000612724601c836131f2565b91507f4552433732313a20746f6b656e20616c7265616479206d696e746564000000006000830152602082019050919050565b60006127646024836131f2565b91507f4552433732313a207472616e7366657220746f20746865207a65726f2061646460008301527f72657373000000000000000000000000000000000000000000000000000000006020830152604082019050919050565b60006127ca6019836131f2565b91507f4552433732313a20617070726f766520746f2063616c6c6572000000000000006000830152602082019050919050565b600061280a6016836131f2565b91507f54686520666565206973206e6f7420636f7272656374000000000000000000006000830152602082019050919050565b600061284a602c836131f2565b91507f4552433732313a206f70657261746f7220717565727920666f72206e6f6e657860008301527f697374656e7420746f6b656e00000000000000000000000000000000000000006020830152604082019050919050565b60006128b06038836131f2565b91507f4552433732313a20617070726f76652063616c6c6572206973206e6f74206f7760008301527f6e6572206e6f7220617070726f76656420666f7220616c6c00000000000000006020830152604082019050919050565b6000612916602a836131f2565b91507f4552433732313a2062616c616e636520717565727920666f7220746865207a6560008301527f726f2061646472657373000000000000000000000000000000000000000000006020830152604082019050919050565b600061297c6029836131f2565b91507f4552433732313a206f776e657220717565727920666f72206e6f6e657869737460008301527f656e7420746f6b656e00000000000000000000000000000000000000000000006020830152604082019050919050565b60006129e26020836131f2565b91507f4552433732313a206d696e7420746f20746865207a65726f20616464726573736000830152602082019050919050565b6000612a22602c836131f2565b91507f4552433732313a20617070726f76656420717565727920666f72206e6f6e657860008301527f697374656e7420746f6b656e00000000000000000000000000000000000000006020830152604082019050919050565b6000612a886020836131f2565b91507f4f776e61626c653a2063616c6c6572206973206e6f7420746865206f776e65726000830152602082019050919050565b6000612ac86029836131f2565b91507f4552433732313a207472616e73666572206f6620746f6b656e2074686174206960008301527f73206e6f74206f776e00000000000000000000000000000000000000000000006020830152604082019050919050565b6000612b2e602f836131f2565b91507f4552433732314d657461646174613a2055524920717565727920666f72206e6f60008301527f6e6578697374656e7420746f6b656e00000000000000000000000000000000006020830152604082019050919050565b6000612b946021836131f2565b91507f4552433732313a20617070726f76616c20746f2063757272656e74206f776e6560008301527f72000000000000000000000000000000000000000000000000000000000000006020830152604082019050919050565b6000612bfa6031836131f2565b91507f4552433732313a207472616e736665722063616c6c6572206973206e6f74206f60008301527f776e6572206e6f7220617070726f7665640000000000000000000000000000006020830152604082019050919050565b600060a0830160008301518482036000860152612c7082826125a8565b9150506020830151612c856020860182612cc9565b506040830151612c986040860182612cc9565b506060830151612cab6060860182612cfe565b506080830151612cbe6080860182612cfe565b508091505092915050565b612cd281613333565b82525050565b612ce181613333565b82525050565b612cf8612cf382613333565b61342b565b82525050565b612d078161333d565b82525050565b612d168161333d565b82525050565b6000612d28828561261a565b9150612d34828461261a565b91508190509392505050565b6000612d4c8285612ce7565b602082019150612d5c82846124d4565b6014820191508190509392505050565b6000602082019050612d8160008301846124c5565b92915050565b6000608082019050612d9c60008301876124c5565b612da960208301866124c5565b612db66040830185612cd8565b8181036060830152612dc8818461256f565b905095945050505050565b60006020820190508181036000830152612ded81846124eb565b905092915050565b6000602082019050612e0a6000830184612560565b92915050565b60006020820190508181036000830152612e2a81846125e1565b905092915050565b600060a0820190508181036000830152612e4c81886125e1565b9050612e5b6020830187612cd8565b612e686040830186612cd8565b612e756060830185612d0d565b612e826080830184612d0d565b9695505050505050565b60006020820190508181036000830152612ea58161264b565b9050919050565b60006020820190508181036000830152612ec5816126b1565b9050919050565b60006020820190508181036000830152612ee581612717565b9050919050565b60006020820190508181036000830152612f0581612757565b9050919050565b60006020820190508181036000830152612f25816127bd565b9050919050565b60006020820190508181036000830152612f45816127fd565b9050919050565b60006020820190508181036000830152612f658161283d565b9050919050565b60006020820190508181036000830152612f85816128a3565b9050919050565b60006020820190508181036000830152612fa581612909565b9050919050565b60006020820190508181036000830152612fc58161296f565b9050919050565b60006020820190508181036000830152612fe5816129d5565b9050919050565b6000602082019050818103600083015261300581612a15565b9050919050565b6000602082019050818103600083015261302581612a7b565b9050919050565b6000602082019050818103600083015261304581612abb565b9050919050565b6000602082019050818103600083015261306581612b21565b9050919050565b6000602082019050818103600083015261308581612b87565b9050919050565b600060208201905081810360008301526130a581612bed565b9050919050565b60006020820190506130c16000830184612cd8565b92915050565b60006040820190506130dc6000830185612cd8565b6130e96020830184612cd8565b9392505050565b6000604051905081810181811067ffffffffffffffff82111715613117576131166134f3565b5b8060405250919050565b600067ffffffffffffffff82111561313c5761313b6134f3565b5b601f19601f8301169050602081019050919050565b600067ffffffffffffffff82111561316c5761316b6134f3565b5b601f19601f8301169050602081019050919050565b6000819050602082019050919050565b600081519050919050565b600081519050919050565b600081519050919050565b6000602082019050919050565b600082825260208201905092915050565b600082825260208201905092915050565b600082825260208201905092915050565b600082825260208201905092915050565b600081905092915050565b600061321982613333565b915061322483613333565b9250827fffffffffffffffffffffffffffffffffffffffffffffffffffffffffffffffff0382111561325957613258613466565b5b828201905092915050565b600061326f82613333565b915061327a83613333565b92508261328a57613289613495565b5b828204905092915050565b60006132a082613333565b91506132ab83613333565b9250828210156132be576132bd613466565b5b828203905092915050565b60006132d482613313565b9050919050565b60008115159050919050565b60007fffffffff0000000000000000000000000000000000000000000000000000000082169050919050565b600073ffffffffffffffffffffffffffffffffffffffff82169050919050565b6000819050919050565b600060ff82169050919050565b82818337600083830152505050565b60005b8381101561337757808201518184015260208101905061335c565b83811115613386576000848401525b50505050565b600060028204905060018216806133a457607f821691505b602082108114156133b8576133b76134c4565b5b50919050565b60006133c982613333565b91507fffffffffffffffffffffffffffffffffffffffffffffffffffffffffffffffff8214156133fc576133fb613466565b5b600182019050919050565b600061341282613419565b9050919050565b600061342482613533565b9050919050565b6000819050919050565b600061344082613333565b915061344b83613333565b92508261345b5761345a613495565b5b828206905092915050565b7f4e487b7100000000000000000000000000000000000000000000000000000000600052601160045260246000fd5b7f4e487b7100000000000000000000000000000000000000000000000000000000600052601260045260246000fd5b7f4e487b7100000000000000000000000000000000000000000000000000000000600052602260045260246000fd5b7f4e487b7100000000000000000000000000000000000000000000000000000000600052604160045260246000fd5b6000601f19601f8301169050919050565b60008160601b9050919050565b613549816132c9565b811461355457600080fd5b50565b613560816132db565b811461356b57600080fd5b50565b613577816132e7565b811461358257600080fd5b50565b61358e81613333565b811461359957600080fd5b5056fea2646970667358221220b61f8bddcdbdac996c93c00fff56ed66b7bc7a50b5c2294e8b2a18e232fe5dfb64736f6c63430008000033",
  "immutableReferences": {},
  "source": "// SPDX-License-Identifier: MIT\n\npragma solidity ^0.8.0;\n\nimport \"@openzeppelin/contracts/access/Ownable.sol\";\nimport \"@openzeppelin/contracts/token/ERC721/ERC721.sol\";\n\ncontract GearToken is ERC721, Ownable {\n    constructor(string memory _name, string memory _symbol)\n        ERC721(_name, _symbol)\n    {}\n\n    uint256 COUNTER; // Incremental function for indexing of NFTs\n\n    // Gas fee function\n    uint256 fee = 1 ether;\n\n    struct Gear {\n        string name;\n        uint256 id;\n        uint256 dna;\n        uint8 level;\n        uint8 rarity;\n    }\n\n    Gear[] public gears;\n\n    event NewGear(address indexed owner, uint256 id, uint256 dna);\n\n    // Helpers\n    function _createRandomNum(uint256 _mod) internal view returns(uint256) { // generate DNA\n        uint256 randomNum = uint256(keccak256(abi.encodePacked(block.timestamp, msg.sender))); // Takes the string input into function _genRandomDna and hashes it into a random number (keccak256)\n        return randomNum % _mod;\n    } \n\n    function updateFee(uint256 _fee) external onlyOwner() {\n        fee = _fee;\n    }\n\n    function withdraw() external payable onlyOwner() { // Withdraw the (holding) gas fee that was paid, only users who have created NFTs can withdraw the gas they've put in\n        address payable _owner = payable(owner());\n        _owner.transfer(address(this).balance);\n    }\n\n    // Minting/creation stage of the token\n    function _createGear(string memory _name) internal {\n        uint8 randRarity = uint8(_createRandomNum(100)); // Modulus of 100 -> Random number from 1-100; converting/casting from uint256 to uint8\n        uint256 randDna = _createRandomNum(10**16);\n        Gear memory newGear = Gear(_name, COUNTER, randDna, 1, randRarity);\n        gears.push(newGear); // Adds the new gear onto the array\n        _safeMint(msg.sender, COUNTER); // Send the token to the account that initialised the transaction?, what is the identifier of the NFT that's being minted?\n        emit NewGear(msg.sender, COUNTER, randDna);\n        COUNTER++;\n    }\n\n    function createRandomGear(string memory _name) public payable {\n        require(msg.value >= fee, \"The fee is not correct\"); // msg.value => how much the address input and sent to the contract\n        _createGear(_name);\n    }\n\n    // Getter functions\n    function getGears() public view returns(Gear[] memory){\n        return gears;\n    }\n}",
  "sourcePath": "/Users/larbuckle/Documents/Star Sailors/polygon/contracts/GearToken.sol",
  "compiler": {
    "name": "solc",
    "version": "0.8.0+commit.c7dfd78e.Emscripten.clang"
  },
  "schemaVersion": "3.4.4",
  "updatedAt": "2022-02-08T06:06:59.909Z",
  "networkType": "ethereum",
  "devdoc": {
    "kind": "dev",
    "methods": {
      "approve(address,uint256)": {
        "details": "See {IERC721-approve}."
      },
      "balanceOf(address)": {
        "details": "See {IERC721-balanceOf}."
      },
      "getApproved(uint256)": {
        "details": "See {IERC721-getApproved}."
      },
      "isApprovedForAll(address,address)": {
        "details": "See {IERC721-isApprovedForAll}."
      },
      "name()": {
        "details": "See {IERC721Metadata-name}."
      },
      "owner()": {
        "details": "Returns the address of the current owner."
      },
      "ownerOf(uint256)": {
        "details": "See {IERC721-ownerOf}."
      },
      "renounceOwnership()": {
        "details": "Leaves the contract without owner. It will not be possible to call `onlyOwner` functions anymore. Can only be called by the current owner. NOTE: Renouncing ownership will leave the contract without an owner, thereby removing any functionality that is only available to the owner."
      },
      "safeTransferFrom(address,address,uint256)": {
        "details": "See {IERC721-safeTransferFrom}."
      },
      "safeTransferFrom(address,address,uint256,bytes)": {
        "details": "See {IERC721-safeTransferFrom}."
      },
      "setApprovalForAll(address,bool)": {
        "details": "See {IERC721-setApprovalForAll}."
      },
      "supportsInterface(bytes4)": {
        "details": "See {IERC165-supportsInterface}."
      },
      "symbol()": {
        "details": "See {IERC721Metadata-symbol}."
      },
      "tokenURI(uint256)": {
        "details": "See {IERC721Metadata-tokenURI}."
      },
      "transferFrom(address,address,uint256)": {
        "details": "See {IERC721-transferFrom}."
      },
      "transferOwnership(address)": {
        "details": "Transfers ownership of the contract to a new account (`newOwner`). Can only be called by the current owner."
      }
    },
    "version": 1
  },
  "userdoc": {
    "kind": "user",
    "methods": {},
    "version": 1
  }
}